{
  "_format": "hh-sol-artifact-1",
  "contractName": "CollateralManager",
  "sourceName": "contracts/CollateralManager.sol",
  "abi": [
    {
      "inputs": [
        {
          "internalType": "address",
          "name": "_mINR",
          "type": "address"
        },
        {
          "internalType": "address",
          "name": "_oracle",
          "type": "address"
        }
      ],
      "stateMutability": "nonpayable",
      "type": "constructor"
    },
    {
      "inputs": [
        {
          "internalType": "address",
          "name": "owner",
          "type": "address"
        }
      ],
      "name": "OwnableInvalidOwner",
      "type": "error"
    },
    {
      "inputs": [
        {
          "internalType": "address",
          "name": "account",
          "type": "address"
        }
      ],
      "name": "OwnableUnauthorizedAccount",
      "type": "error"
    },
    {
      "inputs": [],
      "name": "ReentrancyGuardReentrantCall",
      "type": "error"
    },
    {
      "anonymous": false,
      "inputs": [
        {
          "indexed": true,
          "internalType": "address",
          "name": "token",
          "type": "address"
        },
        {
          "indexed": false,
          "internalType": "uint256",
          "name": "amountOrId",
          "type": "uint256"
        },
        {
          "indexed": false,
          "internalType": "bool",
          "name": "isNFT",
          "type": "bool"
        }
      ],
      "name": "CollateralLocked",
      "type": "event"
    },
    {
      "anonymous": false,
      "inputs": [
        {
          "indexed": true,
          "internalType": "address",
          "name": "previousOwner",
          "type": "address"
        },
        {
          "indexed": true,
          "internalType": "address",
          "name": "newOwner",
          "type": "address"
        }
      ],
      "name": "OwnershipTransferred",
      "type": "event"
    },
    {
      "anonymous": false,
      "inputs": [
        {
          "indexed": true,
          "internalType": "uint256",
          "name": "positionId",
          "type": "uint256"
        },
        {
          "indexed": false,
          "internalType": "address",
          "name": "liquidator",
          "type": "address"
        },
        {
          "indexed": false,
          "internalType": "uint256",
          "name": "bonus",
          "type": "uint256"
        }
      ],
      "name": "PositionLiquidated",
      "type": "event"
    },
    {
      "anonymous": false,
      "inputs": [
        {
          "indexed": true,
          "internalType": "uint256",
          "name": "positionId",
          "type": "uint256"
        },
        {
          "indexed": true,
          "internalType": "address",
          "name": "borrower",
          "type": "address"
        },
        {
          "indexed": false,
          "internalType": "uint256",
          "name": "creditIssued",
          "type": "uint256"
        }
      ],
      "name": "PositionOpened",
      "type": "event"
    },
    {
      "anonymous": false,
      "inputs": [
        {
          "indexed": true,
          "internalType": "uint256",
          "name": "positionId",
          "type": "uint256"
        },
        {
          "indexed": true,
          "internalType": "address",
          "name": "borrower",
          "type": "address"
        },
        {
          "indexed": false,
          "internalType": "uint256",
          "name": "totalRepaid",
          "type": "uint256"
        }
      ],
      "name": "PositionRepaid",
      "type": "event"
    },
    {
      "inputs": [],
      "name": "CRYPTO_LTV",
      "outputs": [
        {
          "internalType": "uint256",
          "name": "",
          "type": "uint256"
        }
      ],
      "stateMutability": "view",
      "type": "function"
    },
    {
      "inputs": [],
      "name": "INTEREST_RATE_APR",
      "outputs": [
        {
          "internalType": "uint256",
          "name": "",
          "type": "uint256"
        }
      ],
      "stateMutability": "view",
      "type": "function"
    },
    {
      "inputs": [],
      "name": "LIQ_BONUS",
      "outputs": [
        {
          "internalType": "uint256",
          "name": "",
          "type": "uint256"
        }
      ],
      "stateMutability": "view",
      "type": "function"
    },
    {
      "inputs": [],
      "name": "LIQ_THRESHOLD",
      "outputs": [
        {
          "internalType": "uint256",
          "name": "",
          "type": "uint256"
        }
      ],
      "stateMutability": "view",
      "type": "function"
    },
    {
      "inputs": [],
      "name": "NFT_FLOOR_HAIRCUT",
      "outputs": [
        {
          "internalType": "uint256",
          "name": "",
          "type": "uint256"
        }
      ],
      "stateMutability": "view",
      "type": "function"
    },
    {
      "inputs": [],
      "name": "NFT_LTV",
      "outputs": [
        {
          "internalType": "uint256",
          "name": "",
          "type": "uint256"
        }
      ],
      "stateMutability": "view",
      "type": "function"
    },
    {
      "inputs": [],
      "name": "ORIGINATION_FEE",
      "outputs": [
        {
          "internalType": "uint256",
          "name": "",
          "type": "uint256"
        }
      ],
      "stateMutability": "view",
      "type": "function"
    },
    {
      "inputs": [
        {
          "internalType": "uint256",
          "name": "positionId",
          "type": "uint256"
        }
      ],
      "name": "getHealthFactor",
      "outputs": [
        {
          "internalType": "uint256",
          "name": "",
          "type": "uint256"
        }
      ],
      "stateMutability": "view",
      "type": "function"
    },
    {
      "inputs": [],
      "name": "getTreasuryBalance",
      "outputs": [
        {
          "internalType": "uint256",
          "name": "",
          "type": "uint256"
        }
      ],
      "stateMutability": "view",
      "type": "function"
    },
    {
      "inputs": [
        {
          "internalType": "address",
          "name": "user",
          "type": "address"
        }
      ],
      "name": "getUserPositions",
      "outputs": [
        {
          "internalType": "uint256[]",
          "name": "",
          "type": "uint256[]"
        }
      ],
      "stateMutability": "view",
      "type": "function"
    },
    {
      "inputs": [
        {
          "internalType": "uint256",
          "name": "positionId",
          "type": "uint256"
        }
      ],
      "name": "liquidatePosition",
      "outputs": [],
      "stateMutability": "nonpayable",
      "type": "function"
    },
    {
      "inputs": [],
      "name": "mINR",
      "outputs": [
        {
          "internalType": "contract IMockINR",
          "name": "",
          "type": "address"
        }
      ],
      "stateMutability": "view",
      "type": "function"
    },
    {
      "inputs": [
        {
          "internalType": "address",
          "name": "tokenAddress",
          "type": "address"
        },
        {
          "internalType": "uint256",
          "name": "tokenAmount",
          "type": "uint256"
        },
        {
          "internalType": "uint256",
          "name": "paymentAmount",
          "type": "uint256"
        }
      ],
      "name": "openPositionERC20",
      "outputs": [],
      "stateMutability": "nonpayable",
      "type": "function"
    },
    {
      "inputs": [
        {
          "internalType": "address",
          "name": "nftContract",
          "type": "address"
        },
        {
          "internalType": "uint256",
          "name": "tokenId",
          "type": "uint256"
        },
        {
          "internalType": "uint256",
          "name": "paymentAmount",
          "type": "uint256"
        }
      ],
      "name": "openPositionNFT",
      "outputs": [],
      "stateMutability": "nonpayable",
      "type": "function"
    },
    {
      "inputs": [],
      "name": "oracle",
      "outputs": [
        {
          "internalType": "contract IMockPriceOracle",
          "name": "",
          "type": "address"
        }
      ],
      "stateMutability": "view",
      "type": "function"
    },
    {
      "inputs": [],
      "name": "owner",
      "outputs": [
        {
          "internalType": "address",
          "name": "",
          "type": "address"
        }
      ],
      "stateMutability": "view",
      "type": "function"
    },
    {
      "inputs": [],
      "name": "positionCounter",
      "outputs": [
        {
          "internalType": "uint256",
          "name": "",
          "type": "uint256"
        }
      ],
      "stateMutability": "view",
      "type": "function"
    },
    {
      "inputs": [
        {
          "internalType": "uint256",
          "name": "",
          "type": "uint256"
        }
      ],
      "name": "positions",
      "outputs": [
        {
          "internalType": "uint256",
          "name": "id",
          "type": "uint256"
        },
        {
          "internalType": "address",
          "name": "borrower",
          "type": "address"
        },
        {
          "internalType": "address",
          "name": "collateralContract",
          "type": "address"
        },
        {
          "internalType": "uint256",
          "name": "collateralAmount",
          "type": "uint256"
        },
        {
          "internalType": "bool",
          "name": "isNFT",
          "type": "bool"
        },
        {
          "internalType": "uint256",
          "name": "creditIssued",
          "type": "uint256"
        },
        {
          "internalType": "uint256",
          "name": "originationFee",
          "type": "uint256"
        },
        {
          "internalType": "uint256",
          "name": "createdAt",
          "type": "uint256"
        },
        {
          "internalType": "uint256",
          "name": "repayBy",
          "type": "uint256"
        },
        {
          "internalType": "bool",
          "name": "active",
          "type": "bool"
        },
        {
          "internalType": "bool",
          "name": "liquidated",
          "type": "bool"
        }
      ],
      "stateMutability": "view",
      "type": "function"
    },
    {
      "inputs": [],
      "name": "renounceOwnership",
      "outputs": [],
      "stateMutability": "nonpayable",
      "type": "function"
    },
    {
      "inputs": [
        {
          "internalType": "uint256",
          "name": "positionId",
          "type": "uint256"
        }
      ],
      "name": "repayPosition",
      "outputs": [],
      "stateMutability": "nonpayable",
      "type": "function"
    },
    {
      "inputs": [
        {
          "internalType": "address",
          "name": "newOwner",
          "type": "address"
        }
      ],
      "name": "transferOwnership",
      "outputs": [],
      "stateMutability": "nonpayable",
      "type": "function"
    },
    {
      "inputs": [
        {
          "internalType": "address",
          "name": "",
          "type": "address"
        },
        {
          "internalType": "uint256",
          "name": "",
          "type": "uint256"
        }
      ],
      "name": "userPositions",
      "outputs": [
        {
          "internalType": "uint256",
          "name": "",
          "type": "uint256"
        }
      ],
      "stateMutability": "view",
      "type": "function"
    },
    {
      "inputs": [
        {
          "internalType": "uint256",
          "name": "amount",
          "type": "uint256"
        }
      ],
      "name": "withdrawTreasury",
      "outputs": [],
      "stateMutability": "nonpayable",
      "type": "function"
    }
  ],
  "bytecode": "0x608060405234801562000010575f80fd5b506040516200198f3803806200198f833981016040819052620000339162000126565b33806200005957604051631e4fbdf760e01b81525f600482015260240160405180910390fd5b6200006481620000bb565b5060017f9b779b17422d0df92223018b32b4d1fa46e071723d6817e2486d003becc55f0055600180546001600160a01b039384166001600160a01b031991821617909155600280549290931691161790556200015c565b5f80546001600160a01b038381166001600160a01b0319831681178455604051919092169283917f8be0079c531659141344cd1fd0a4f28419497f9722a3daafe3b4186f6b6457e09190a35050565b80516001600160a01b038116811462000121575f80fd5b919050565b5f806040838503121562000138575f80fd5b62000143836200010a565b915062000153602084016200010a565b90509250929050565b611825806200016a5f395ff3fe608060405234801561000f575f80fd5b5060043610610148575f3560e01c806377ca9369116100bf5780639f9c4225116100795780639f9c422514610338578063be8fdd9c14610340578063c466038f14610348578063cdddd4e51461035b578063d2e667a61461036e578063f2fde38b14610381575f80fd5b806377ca9369146101fe5780637dc0d1d0146102065780638da5cb5b1461023157806399fbab88146102415780639b5655dc1461031d5780639b9e5d6e14610325575f80fd5b80635853355b116101105780635853355b146101b75780635e0a62f0146101ca5780635e1b4d99146101d257806363d5ab8d146101e5578063715018a6146101ee57806371f38941146101f6575f80fd5b806311f1fc991461014c57806317845c69146101615780632a6bc2dd146101875780633aa3fe79146101a757806354a67352146101af575b5f80fd5b61015f61015a3660046115ae565b610394565b005b61017461016f3660046115ae565b610430565b6040519081526020015b60405180910390f35b61019a6101953660046115e0565b61055c565b60405161017e9190611600565b610174600f81565b610174604b81565b61015f6101c53660046115ae565b6105c5565b610174604681565b6101746101e0366004611643565b610922565b61017460035481565b61015f61094d565b610174600581565b610174600681565b600254610219906001600160a01b031681565b6040516001600160a01b03909116815260200161017e565b5f546001600160a01b0316610219565b6102ba61024f3660046115ae565b600460208190525f9182526040909120805460018201546002830154600384015494840154600585015460068601546007870154600888015460099098015496986001600160a01b0396871698959096169660ff94851695939492939192818116916101009004168b565b604080519b8c526001600160a01b039a8b1660208d015298909916978a01979097526060890195909552921515608088015260a087019190915260c086015260e0850152610100840152151561012083015215156101408201526101600161017e565b610174610960565b61015f61033336600461166b565b6109cf565b610174603281565b610174602881565b61015f61035636600461166b565b610e5b565b61015f6103693660046115ae565b6110c2565b600154610219906001600160a01b031681565b61015f61038f3660046115e0565b6114af565b61039c6114e9565b6001546001600160a01b031663a9059cbb6103be5f546001600160a01b031690565b6040516001600160e01b031960e084901b1681526001600160a01b039091166004820152602481018490526044016020604051808303815f875af1158015610408573d5f803e3d5ffd5b505050506040513d601f19601f8201168201806040525081019061042c919061169b565b5050565b5f818152600460205260408120600981015460ff1661045157505f92915050565b60028054908201546040516341976e0960e01b81526001600160a01b0391821660048201525f92839216906341976e0990602401602060405180830381865afa1580156104a0573d5f803e3d5ffd5b505050506040513d601f19601f820116820180604052508101906104c491906116ba565b600484015490915060ff16156105015760646104e16046836116e5565b6104f0906402540be4006116e5565b6104fa9190611702565b9150610523565b6305f5e10081846003015461051691906116e5565b6105209190611702565b91505b82600501545f0361053957505f19949350505050565b6005830154610549604b846116e5565b6105539190611702565b95945050505050565b6001600160a01b0381165f908152600560209081526040918290208054835181840281018401909452808452606093928301828280156105b957602002820191905f5260205f20905b8154815260200190600101908083116105a5575b50505050509050919050565b6105cd611515565b5f818152600460205260409020600981015460ff166106275760405162461bcd60e51b8152602060048201526011602482015270506f736974696f6e20696e61637469766560781b60448201526064015b60405180910390fd5b60018101546001600160a01b031633146106725760405162461bcd60e51b815260206004820152600c60248201526b2737ba103137b93937bbb2b960a11b604482015260640161061e565b5f620151808260070154426106879190611721565b6106919190611702565b90505f606461016d83600686600501546106ab91906116e5565b6106b591906116e5565b6106bf9190611702565b6106c99190611702565b90505f8184600501546106dc9190611734565b600154600586015460405163079cc67960e41b815233600482015260248101919091529192506001600160a01b0316906379cc6790906044015f604051808303815f87803b15801561072c575f80fd5b505af115801561073e573d5f803e3d5ffd5b505050505f8211156107c0576001546040516323b872dd60e01b81526001600160a01b03909116906323b872dd9061077e90339030908790600401611747565b6020604051808303815f875af115801561079a573d5f803e3d5ffd5b505050506040513d601f19601f820116820180604052508101906107be919061169b565b505b600484015460ff1615610840576002840154600185015460038601546040516323b872dd60e01b81526001600160a01b03938416936323b872dd9361080e9330939290911691600401611747565b5f604051808303815f87803b158015610825575f80fd5b505af1158015610837573d5f803e3d5ffd5b505050506108c2565b60028401546001850154600386015460405163a9059cbb60e01b81526001600160a01b039283166004820152602481019190915291169063a9059cbb906044016020604051808303815f875af115801561089c573d5f803e3d5ffd5b505050506040513d601f19601f820116820180604052508101906108c0919061169b565b505b60098401805460ff19169055604051818152339086907f07182a731909bc27f482c6d19df02ed077da24af14476c7cd969994ede9d923e9060200160405180910390a35050505061091f60015f805160206117d083398151915255565b50565b6005602052815f5260405f20818154811061093b575f80fd5b905f5260205f20015f91509150505481565b6109556114e9565b61095e5f611530565b565b6001546040516370a0823160e01b81523060048201525f916001600160a01b0316906370a0823190602401602060405180830381865afa1580156109a6573d5f803e3d5ffd5b505050506040513d601f19601f820116820180604052508101906109ca91906116ba565b905090565b6109d7611515565b6040516323b872dd60e01b81526001600160a01b038416906323b872dd90610a0790339030908790600401611747565b6020604051808303815f875af1158015610a23573d5f803e3d5ffd5b505050506040513d601f19601f82011682018060405250810190610a47919061169b565b50604080518381525f60208201526001600160a01b038516917fef67a99a654aefe6113f3226342ab06b110ab27cae15f573477748b59b117de2910160405180910390a26002546040516341976e0960e01b81526001600160a01b0385811660048301525f9216906341976e0990602401602060405180830381865afa158015610ad3573d5f803e3d5ffd5b505050506040513d601f19601f82011682018060405250810190610af791906116ba565b90505f8111610b3f5760405162461bcd60e51b815260206004820152601460248201527313dc9858db19481c1c9a58d9481b9bdd081cd95d60621b604482015260640161061e565b5f6305f5e100610b4f83866116e5565b610b599190611702565b90505f6064610b696032846116e5565b610b739190611702565b905083811015610b955760405162461bcd60e51b815260040161061e9061176b565b5f6103e8610ba4600f876116e5565b610bae9190611702565b90505f610bbb8287611721565b600380549192505f610bcc836117b7565b91905055506040518061016001604052806003548152602001336001600160a01b03168152602001896001600160a01b031681526020018881526020015f151581526020018781526020018381526020014281526020014262093a80610c329190611734565b8152600160208083018290525f60409384018190526003805482526004808452858320875181558785015181870180546001600160a01b03199081166001600160a01b0393841617909155898901516002840180549092169083161790556060890151828501556080890151828401805460ff191691151591909117905560a089015160058084019190915560c08a0151600684015560e08a01516007840155610100808b015160088501556101208b015160099094018054610140909c015161ffff19909c1694151561ff001916949094179a15150299909917909155338452968452858320915482548087018455928452939092200191909155905491516340c10f1960e01b815291909216916340c10f1991610d699130918791016001600160a01b03929092168252602082015260400190565b5f604051808303815f87803b158015610d80575f80fd5b505af1158015610d92573d5f803e3d5ffd5b50506001546040516340c10f1960e01b8152336004820152602481018590526001600160a01b0390911692506340c10f1991506044015f604051808303815f87803b158015610ddf575f80fd5b505af1158015610df1573d5f803e3d5ffd5b50505050336001600160a01b03166003547feaa60b48f40915eec9cac9494da9c20cd39a8da2477334ecd0d97cab6c2de05b88604051610e3391815260200190565b60405180910390a35050505050610e5660015f805160206117d083398151915255565b505050565b610e63611515565b6040516323b872dd60e01b81526001600160a01b038416906323b872dd90610e9390339030908790600401611747565b5f604051808303815f87803b158015610eaa575f80fd5b505af1158015610ebc573d5f803e3d5ffd5b505060408051858152600160208201526001600160a01b03871693507fef67a99a654aefe6113f3226342ab06b110ab27cae15f573477748b59b117de292500160405180910390a26002546040516341976e0960e01b81526001600160a01b0385811660048301525f9216906341976e0990602401602060405180830381865afa158015610f4c573d5f803e3d5ffd5b505050506040513d601f19601f82011682018060405250810190610f7091906116ba565b90505f8111610fc15760405162461bcd60e51b815260206004820152601a60248201527f4f7261636c6520666c6f6f72207072696365206e6f7420736574000000000000604482015260640161061e565b5f6064610fcf6046846116e5565b610fde906402540be4006116e5565b610fe89190611702565b90505f6064610ff86028846116e5565b6110029190611702565b9050838110156110245760405162461bcd60e51b815260040161061e9061176b565b5f6103e8611033600f876116e5565b61103d9190611702565b90505f61104a8287611721565b600380549192505f61105b836117b7565b91905055506040518061016001604052806003548152602001336001600160a01b03168152602001896001600160a01b031681526020018881526020016001151581526020018781526020018381526020014281526020014262093a80610c329190611734565b6110ca611515565b5f818152600460205260409020600981015460ff1661111f5760405162461bcd60e51b8152602060048201526011602482015270506f736974696f6e20696e61637469766560781b604482015260640161061e565b5f61112983610430565b60088301549091504211606482108061113f5750805b61117e5760405162461bcd60e51b815260206004820152601060248201526f4e6f74206c6971756964617461626c6560801b604482015260640161061e565b60028054908401546040516341976e0960e01b81526001600160a01b0391821660048201525f9291909116906341976e0990602401602060405180830381865afa1580156111ce573d5f803e3d5ffd5b505050506040513d601f19601f820116820180604052508101906111f291906116ba565b60048501549091505f9060ff161561121a57611213826402540be4006116e5565b905061123c565b6305f5e10082866003015461122f91906116e5565b6112399190611702565b90505b5f606461124a6005846116e5565b6112549190611702565b60058701549091505f6112678383611734565b84111561128657826112798386611721565b6112839190611721565b90505b60015460405163079cc67960e41b8152336004820152602481018490526001600160a01b03909116906379cc6790906044015f604051808303815f87803b1580156112cf575f80fd5b505af11580156112e1573d5f803e3d5ffd5b50505050600488015460ff161561135d57600288015460038901546040516323b872dd60e01b81526001600160a01b03909216916323b872dd9161132b9130913391600401611747565b5f604051808303815f87803b158015611342575f80fd5b505af1158015611354573d5f803e3d5ffd5b505050506113d9565b6002880154600389015460405163a9059cbb60e01b815233600482015260248101919091526001600160a01b039091169063a9059cbb906044016020604051808303815f875af11580156113b3573d5f803e3d5ffd5b505050506040513d601f19601f820116820180604052508101906113d7919061169b565b505b80156114455760018054908901546040516340c10f1960e01b81526001600160a01b039182166004820152602481018490529116906340c10f19906044015f604051808303815f87803b15801561142e575f80fd5b505af1158015611440573d5f803e3d5ffd5b505050505b60098801805461ffff191661010017905560408051338152602081018590528a917f26dc706c10b1f8a4bf68a2f50b9a025921938e72ee2ab65f50815438fba4a88d910160405180910390a2505050505050505061091f60015f805160206117d083398151915255565b6114b76114e9565b6001600160a01b0381166114e057604051631e4fbdf760e01b81525f600482015260240161061e565b61091f81611530565b5f546001600160a01b0316331461095e5760405163118cdaa760e01b815233600482015260240161061e565b61151d61157f565b60025f805160206117d083398151915255565b5f80546001600160a01b038381166001600160a01b0319831681178455604051919092169283917f8be0079c531659141344cd1fd0a4f28419497f9722a3daafe3b4186f6b6457e09190a35050565b5f805160206117d08339815191525460020361095e57604051633ee5aeb560e01b815260040160405180910390fd5b5f602082840312156115be575f80fd5b5035919050565b80356001600160a01b03811681146115db575f80fd5b919050565b5f602082840312156115f0575f80fd5b6115f9826115c5565b9392505050565b602080825282518282018190525f9190848201906040850190845b818110156116375783518352928401929184019160010161161b565b50909695505050505050565b5f8060408385031215611654575f80fd5b61165d836115c5565b946020939093013593505050565b5f805f6060848603121561167d575f80fd5b611686846115c5565b95602085013595506040909401359392505050565b5f602082840312156116ab575f80fd5b815180151581146115f9575f80fd5b5f602082840312156116ca575f80fd5b5051919050565b634e487b7160e01b5f52601160045260245ffd5b80820281158282048414176116fc576116fc6116d1565b92915050565b5f8261171c57634e487b7160e01b5f52601260045260245ffd5b500490565b818103818111156116fc576116fc6116d1565b808201808211156116fc576116fc6116d1565b6001600160a01b039384168152919092166020820152604081019190915260600190565b6020808252602c908201527f496e73756666696369656e7420636f6c6c61746572616c20666f72207265717560408201526b195cdd19590818dc99591a5d60a21b606082015260800190565b5f600182016117c8576117c86116d1565b506001019056fe9b779b17422d0df92223018b32b4d1fa46e071723d6817e2486d003becc55f00a2646970667358221220355144bc1b96b89ed4ffbba5caac14b3453ec04db8984cd8e39ecf94378bb9c064736f6c63430008180033",
  "linkReferences": {},
  "deployedLinkReferences": {}
}