{
  "_format": "hh-sol-artifact-1",
  "contractName": "MockINR",
  "sourceName": "contracts/MockINR.sol",
  "abi": [
    {
      "inputs": [],
      "stateMutability": "nonpayable",
      "type": "constructor"
    },
    {
      "inputs": [
        {
          "internalType": "address",
          "name": "spender",
          "type": "address"
        },
        {
          "internalType": "uint256",
          "name": "allowance",
          "type": "uint256"
        },
        {
          "internalType": "uint256",
          "name": "needed",
          "type": "uint256"
        }
      ],
      "name": "ERC20InsufficientAllowance",
      "type": "error"
    },
    {
      "inputs": [
        {
          "internalType": "address",
          "name": "sender",
          "type": "address"
        },
        {
          "internalType": "uint256",
          "name": "balance",
          "type": "uint256"
        },
        {
          "internalType": "uint256",
          "name": "needed",
          "type": "uint256"
        }
      ],
      "name": "ERC20InsufficientBalance",
      "type": "error"
    },
    {
      "inputs": [
        {
          "internalType": "address",
          "name": "approver",
          "type": "address"
        }
      ],
      "name": "ERC20InvalidApprover",
      "type": "error"
    },
    {
      "inputs": [
        {
          "internalType": "address",
          "name": "receiver",
          "type": "address"
        }
      ],
      "name": "ERC20InvalidReceiver",
      "type": "error"
    },
    {
      "inputs": [
        {
          "internalType": "address",
          "name": "sender",
          "type": "address"
        }
      ],
      "name": "ERC20InvalidSender",
      "type": "error"
    },
    {
      "inputs": [
        {
          "internalType": "address",
          "name": "spender",
          "type": "address"
        }
      ],
      "name": "ERC20InvalidSpender",
      "type": "error"
    },
    {
      "inputs": [
        {
          "internalType": "address",
          "name": "owner",
          "type": "address"
        }
      ],
      "name": "OwnableInvalidOwner",
      "type": "error"
    },
    {
      "inputs": [
        {
          "internalType": "address",
          "name": "account",
          "type": "address"
        }
      ],
      "name": "OwnableUnauthorizedAccount",
      "type": "error"
    },
    {
      "anonymous": false,
      "inputs": [
        {
          "indexed": true,
          "internalType": "address",
          "name": "owner",
          "type": "address"
        },
        {
          "indexed": true,
          "internalType": "address",
          "name": "spender",
          "type": "address"
        },
        {
          "indexed": false,
          "internalType": "uint256",
          "name": "value",
          "type": "uint256"
        }
      ],
      "name": "Approval",
      "type": "event"
    },
    {
      "anonymous": false,
      "inputs": [
        {
          "indexed": true,
          "internalType": "address",
          "name": "previousOwner",
          "type": "address"
        },
        {
          "indexed": true,
          "internalType": "address",
          "name": "newOwner",
          "type": "address"
        }
      ],
      "name": "OwnershipTransferred",
      "type": "event"
    },
    {
      "anonymous": false,
      "inputs": [
        {
          "indexed": true,
          "internalType": "address",
          "name": "from",
          "type": "address"
        },
        {
          "indexed": true,
          "internalType": "address",
          "name": "to",
          "type": "address"
        },
        {
          "indexed": false,
          "internalType": "uint256",
          "name": "value",
          "type": "uint256"
        }
      ],
      "name": "Transfer",
      "type": "event"
    },
    {
      "inputs": [
        {
          "internalType": "address",
          "name": "owner",
          "type": "address"
        },
        {
          "internalType": "address",
          "name": "spender",
          "type": "address"
        }
      ],
      "name": "allowance",
      "outputs": [
        {
          "internalType": "uint256",
          "name": "",
          "type": "uint256"
        }
      ],
      "stateMutability": "view",
      "type": "function"
    },
    {
      "inputs": [
        {
          "internalType": "address",
          "name": "spender",
          "type": "address"
        },
        {
          "internalType": "uint256",
          "name": "value",
          "type": "uint256"
        }
      ],
      "name": "approve",
      "outputs": [
        {
          "internalType": "bool",
          "name": "",
          "type": "bool"
        }
      ],
      "stateMutability": "nonpayable",
      "type": "function"
    },
    {
      "inputs": [
        {
          "internalType": "address",
          "name": "account",
          "type": "address"
        }
      ],
      "name": "balanceOf",
      "outputs": [
        {
          "internalType": "uint256",
          "name": "",
          "type": "uint256"
        }
      ],
      "stateMutability": "view",
      "type": "function"
    },
    {
      "inputs": [
        {
          "internalType": "uint256",
          "name": "value",
          "type": "uint256"
        }
      ],
      "name": "burn",
      "outputs": [],
      "stateMutability": "nonpayable",
      "type": "function"
    },
    {
      "inputs": [
        {
          "internalType": "address",
          "name": "account",
          "type": "address"
        },
        {
          "internalType": "uint256",
          "name": "value",
          "type": "uint256"
        }
      ],
      "name": "burnFrom",
      "outputs": [],
      "stateMutability": "nonpayable",
      "type": "function"
    },
    {
      "inputs": [],
      "name": "decimals",
      "outputs": [
        {
          "internalType": "uint8",
          "name": "",
          "type": "uint8"
        }
      ],
      "stateMutability": "view",
      "type": "function"
    },
    {
      "inputs": [
        {
          "internalType": "address",
          "name": "minter",
          "type": "address"
        }
      ],
      "name": "grantMinter",
      "outputs": [],
      "stateMutability": "nonpayable",
      "type": "function"
    },
    {
      "inputs": [
        {
          "internalType": "address",
          "name": "",
          "type": "address"
        }
      ],
      "name": "isMinter",
      "outputs": [
        {
          "internalType": "bool",
          "name": "",
          "type": "bool"
        }
      ],
      "stateMutability": "view",
      "type": "function"
    },
    {
      "inputs": [
        {
          "internalType": "address",
          "name": "to",
          "type": "address"
        },
        {
          "internalType": "uint256",
          "name": "amount",
          "type": "uint256"
        }
      ],
      "name": "mint",
      "outputs": [],
      "stateMutability": "nonpayable",
      "type": "function"
    },
    {
      "inputs": [],
      "name": "name",
      "outputs": [
        {
          "internalType": "string",
          "name": "",
          "type": "string"
        }
      ],
      "stateMutability": "view",
      "type": "function"
    },
    {
      "inputs": [],
      "name": "owner",
      "outputs": [
        {
          "internalType": "address",
          "name": "",
          "type": "address"
        }
      ],
      "stateMutability": "view",
      "type": "function"
    },
    {
      "inputs": [],
      "name": "renounceOwnership",
      "outputs": [],
      "stateMutability": "nonpayable",
      "type": "function"
    },
    {
      "inputs": [
        {
          "internalType": "address",
          "name": "minter",
          "type": "address"
        }
      ],
      "name": "revokeMinter",
      "outputs": [],
      "stateMutability": "nonpayable",
      "type": "function"
    },
    {
      "inputs": [],
      "name": "symbol",
      "outputs": [
        {
          "internalType": "string",
          "name": "",
          "type": "string"
        }
      ],
      "stateMutability": "view",
      "type": "function"
    },
    {
      "inputs": [],
      "name": "totalSupply",
      "outputs": [
        {
          "internalType": "uint256",
          "name": "",
          "type": "uint256"
        }
      ],
      "stateMutability": "view",
      "type": "function"
    },
    {
      "inputs": [
        {
          "internalType": "address",
          "name": "to",
          "type": "address"
        },
        {
          "internalType": "uint256",
          "name": "value",
          "type": "uint256"
        }
      ],
      "name": "transfer",
      "outputs": [
        {
          "internalType": "bool",
          "name": "",
          "type": "bool"
        }
      ],
      "stateMutability": "nonpayable",
      "type": "function"
    },
    {
      "inputs": [
        {
          "internalType": "address",
          "name": "from",
          "type": "address"
        },
        {
          "internalType": "address",
          "name": "to",
          "type": "address"
        },
        {
          "internalType": "uint256",
          "name": "value",
          "type": "uint256"
        }
      ],
      "name": "transferFrom",
      "outputs": [
        {
          "internalType": "bool",
          "name": "",
          "type": "bool"
        }
      ],
      "stateMutability": "nonpayable",
      "type": "function"
    },
    {
      "inputs": [
        {
          "internalType": "address",
          "name": "newOwner",
          "type": "address"
        }
      ],
      "name": "transferOwnership",
      "outputs": [],
      "stateMutability": "nonpayable",
      "type": "function"
    }
  ],
  "bytecode": "0x608060405234801562000010575f80fd5b50336040518060400160405280600881526020016726b7b1b59024a72960c11b8152506040518060400160405280600481526020016336a4a72960e11b8152508160039081620000619190620001bb565b506004620000708282620001bb565b5050506001600160a01b038116620000a157604051631e4fbdf760e01b81525f600482015260240160405180910390fd5b620000ac81620000cc565b50335f908152600660205260409020805460ff1916600117905562000287565b600580546001600160a01b038381166001600160a01b0319831681179093556040519116919082907f8be0079c531659141344cd1fd0a4f28419497f9722a3daafe3b4186f6b6457e0905f90a35050565b634e487b7160e01b5f52604160045260245ffd5b600181811c908216806200014657607f821691505b6020821081036200016557634e487b7160e01b5f52602260045260245ffd5b50919050565b601f821115620001b657805f5260205f20601f840160051c81016020851015620001925750805b601f840160051c820191505b81811015620001b3575f81556001016200019e565b50505b505050565b81516001600160401b03811115620001d757620001d76200011d565b620001ef81620001e8845462000131565b846200016b565b602080601f83116001811462000225575f84156200020d5750858301515b5f19600386901b1c1916600185901b1785556200027f565b5f85815260208120601f198616915b82811015620002555788860151825594840194600190910190840162000234565b50858210156200027357878501515f19600388901b60f8161c191681555b505060018460011b0185555b505050505050565b610a5880620002955f395ff3fe608060405234801561000f575f80fd5b5060043610610111575f3560e01c8063715018a61161009e578063a9059cbb1161006e578063a9059cbb1461022b578063aa271e1a1461023e578063cfbd488514610260578063dd62ed3e14610273578063f2fde38b146102ab575f80fd5b8063715018a6146101ed57806379cc6790146101f55780638da5cb5b1461020857806395d89b4114610223575f80fd5b8063261707fa116100e4578063261707fa1461017b578063313ce5671461019057806340c10f191461019f57806342966c68146101b257806370a08231146101c5575f80fd5b806306fdde0314610115578063095ea7b31461013357806318160ddd1461015657806323b872dd14610168575b5f80fd5b61011d6102be565b60405161012a919061089b565b60405180910390f35b610146610141366004610902565b61034e565b604051901515815260200161012a565b6002545b60405190815260200161012a565b61014661017636600461092a565b610367565b61018e610189366004610963565b61038a565b005b6040516012815260200161012a565b61018e6101ad366004610902565b6103b5565b61018e6101c0366004610983565b61041f565b61015a6101d3366004610963565b6001600160a01b03165f9081526020819052604090205490565b61018e61042c565b61018e610203366004610902565b61043f565b6005546040516001600160a01b03909116815260200161012a565b61011d610454565b610146610239366004610902565b610463565b61014661024c366004610963565b60066020525f908152604090205460ff1681565b61018e61026e366004610963565b610470565b61015a61028136600461099a565b6001600160a01b039182165f90815260016020908152604080832093909416825291909152205490565b61018e6102b9366004610963565b610498565b6060600380546102cd906109cb565b80601f01602080910402602001604051908101604052809291908181526020018280546102f9906109cb565b80156103445780601f1061031b57610100808354040283529160200191610344565b820191905f5260205f20905b81548152906001019060200180831161032757829003601f168201915b5050505050905090565b5f3361035b8185856104d2565b60019150505b92915050565b5f336103748582856104e4565b61037f858585610560565b506001949350505050565b6103926105bd565b6001600160a01b03165f908152600660205260409020805460ff19166001179055565b335f9081526006602052604090205460ff166104115760405162461bcd60e51b815260206004820152601660248201527521b0b63632b91034b9903737ba10309036b4b73a32b960511b60448201526064015b60405180910390fd5b61041b82826105ea565b5050565b610429338261061e565b50565b6104346105bd565b61043d5f610652565b565b61044a8233836104e4565b61041b828261061e565b6060600480546102cd906109cb565b5f3361035b818585610560565b6104786105bd565b6001600160a01b03165f908152600660205260409020805460ff19169055565b6104a06105bd565b6001600160a01b0381166104c957604051631e4fbdf760e01b81525f6004820152602401610408565b61042981610652565b6104df83838360016106a3565b505050565b6001600160a01b038381165f908152600160209081526040808320938616835292905220545f1981101561055a578181101561054c57604051637dc7a0d960e11b81526001600160a01b03841660048201526024810182905260448101839052606401610408565b61055a84848484035f6106a3565b50505050565b6001600160a01b03831661058957604051634b637e8f60e11b81525f6004820152602401610408565b6001600160a01b0382166105b25760405163ec442f0560e01b81525f6004820152602401610408565b6104df838383610775565b6005546001600160a01b0316331461043d5760405163118cdaa760e01b8152336004820152602401610408565b6001600160a01b0382166106135760405163ec442f0560e01b81525f6004820152602401610408565b61041b5f8383610775565b6001600160a01b03821661064757604051634b637e8f60e11b81525f6004820152602401610408565b61041b825f83610775565b600580546001600160a01b038381166001600160a01b0319831681179093556040519116919082907f8be0079c531659141344cd1fd0a4f28419497f9722a3daafe3b4186f6b6457e0905f90a35050565b6001600160a01b0384166106cc5760405163e602df0560e01b81525f6004820152602401610408565b6001600160a01b0383166106f557604051634a1406b160e11b81525f6004820152602401610408565b6001600160a01b038085165f908152600160209081526040808320938716835292905220829055801561055a57826001600160a01b0316846001600160a01b03167f8c5be1e5ebec7d5bd14f71427d1e84f3dd0314c0f7b2291e5b200ac8c7c3b9258460405161076791815260200190565b60405180910390a350505050565b6001600160a01b03831661079f578060025f8282546107949190610a03565b9091555061080f9050565b6001600160a01b0383165f90815260208190526040902054818110156107f15760405163391434e360e21b81526001600160a01b03851660048201526024810182905260448101839052606401610408565b6001600160a01b0384165f9081526020819052604090209082900390555b6001600160a01b03821661082b57600280548290039055610849565b6001600160a01b0382165f9081526020819052604090208054820190555b816001600160a01b0316836001600160a01b03167fddf252ad1be2c89b69c2b068fc378daa952ba7f163c4a11628f55a4df523b3ef8360405161088e91815260200190565b60405180910390a3505050565b5f602080835283518060208501525f5b818110156108c7578581018301518582016040015282016108ab565b505f604082860101526040601f19601f8301168501019250505092915050565b80356001600160a01b03811681146108fd575f80fd5b919050565b5f8060408385031215610913575f80fd5b61091c836108e7565b946020939093013593505050565b5f805f6060848603121561093c575f80fd5b610945846108e7565b9250610953602085016108e7565b9150604084013590509250925092565b5f60208284031215610973575f80fd5b61097c826108e7565b9392505050565b5f60208284031215610993575f80fd5b5035919050565b5f80604083850312156109ab575f80fd5b6109b4836108e7565b91506109c2602084016108e7565b90509250929050565b600181811c908216806109df57607f821691505b6020821081036109fd57634e487b7160e01b5f52602260045260245ffd5b50919050565b8082018082111561036157634e487b7160e01b5f52601160045260245ffdfea2646970667358221220a04c5f305b8f0cc66f69595fde3e84a383424c70d3141689d00cf9f9a767185864736f6c63430008180033",
  "linkReferences": {},
  "deployedLinkReferences": {}
}