{
  "_format": "hh-sol-artifact-1",
  "contractName": "MockNFT",
  "sourceName": "contracts/MockNFT.sol",
  "abi": [
    {
      "inputs": [],
      "stateMutability": "nonpayable",
      "type": "constructor"
    },
    {
      "inputs": [
        {
          "internalType": "address",
          "name": "sender",
          "type": "address"
        },
        {
          "internalType": "uint256",
          "name": "tokenId",
          "type": "uint256"
        },
        {
          "internalType": "address",
          "name": "owner",
          "type": "address"
        }
      ],
      "name": "ERC721IncorrectOwner",
      "type": "error"
    },
    {
      "inputs": [
        {
          "internalType": "address",
          "name": "operator",
          "type": "address"
        },
        {
          "internalType": "uint256",
          "name": "tokenId",
          "type": "uint256"
        }
      ],
      "name": "ERC721InsufficientApproval",
      "type": "error"
    },
    {
      "inputs": [
        {
          "internalType": "address",
          "name": "approver",
          "type": "address"
        }
      ],
      "name": "ERC721InvalidApprover",
      "type": "error"
    },
    {
      "inputs": [
        {
          "internalType": "address",
          "name": "operator",
          "type": "address"
        }
      ],
      "name": "ERC721InvalidOperator",
      "type": "error"
    },
    {
      "inputs": [
        {
          "internalType": "address",
          "name": "owner",
          "type": "address"
        }
      ],
      "name": "ERC721InvalidOwner",
      "type": "error"
    },
    {
      "inputs": [
        {
          "internalType": "address",
          "name": "receiver",
          "type": "address"
        }
      ],
      "name": "ERC721InvalidReceiver",
      "type": "error"
    },
    {
      "inputs": [
        {
          "internalType": "address",
          "name": "sender",
          "type": "address"
        }
      ],
      "name": "ERC721InvalidSender",
      "type": "error"
    },
    {
      "inputs": [
        {
          "internalType": "uint256",
          "name": "tokenId",
          "type": "uint256"
        }
      ],
      "name": "ERC721NonexistentToken",
      "type": "error"
    },
    {
      "inputs": [
        {
          "internalType": "address",
          "name": "owner",
          "type": "address"
        }
      ],
      "name": "OwnableInvalidOwner",
      "type": "error"
    },
    {
      "inputs": [
        {
          "internalType": "address",
          "name": "account",
          "type": "address"
        }
      ],
      "name": "OwnableUnauthorizedAccount",
      "type": "error"
    },
    {
      "anonymous": false,
      "inputs": [
        {
          "indexed": true,
          "internalType": "address",
          "name": "owner",
          "type": "address"
        },
        {
          "indexed": true,
          "internalType": "address",
          "name": "approved",
          "type": "address"
        },
        {
          "indexed": true,
          "internalType": "uint256",
          "name": "tokenId",
          "type": "uint256"
        }
      ],
      "name": "Approval",
      "type": "event"
    },
    {
      "anonymous": false,
      "inputs": [
        {
          "indexed": true,
          "internalType": "address",
          "name": "owner",
          "type": "address"
        },
        {
          "indexed": true,
          "internalType": "address",
          "name": "operator",
          "type": "address"
        },
        {
          "indexed": false,
          "internalType": "bool",
          "name": "approved",
          "type": "bool"
        }
      ],
      "name": "ApprovalForAll",
      "type": "event"
    },
    {
      "anonymous": false,
      "inputs": [
        {
          "indexed": true,
          "internalType": "address",
          "name": "previousOwner",
          "type": "address"
        },
        {
          "indexed": true,
          "internalType": "address",
          "name": "newOwner",
          "type": "address"
        }
      ],
      "name": "OwnershipTransferred",
      "type": "event"
    },
    {
      "anonymous": false,
      "inputs": [
        {
          "indexed": true,
          "internalType": "address",
          "name": "from",
          "type": "address"
        },
        {
          "indexed": true,
          "internalType": "address",
          "name": "to",
          "type": "address"
        },
        {
          "indexed": true,
          "internalType": "uint256",
          "name": "tokenId",
          "type": "uint256"
        }
      ],
      "name": "Transfer",
      "type": "event"
    },
    {
      "inputs": [
        {
          "internalType": "address",
          "name": "to",
          "type": "address"
        },
        {
          "internalType": "uint256",
          "name": "tokenId",
          "type": "uint256"
        }
      ],
      "name": "approve",
      "outputs": [],
      "stateMutability": "nonpayable",
      "type": "function"
    },
    {
      "inputs": [
        {
          "internalType": "address",
          "name": "owner",
          "type": "address"
        }
      ],
      "name": "balanceOf",
      "outputs": [
        {
          "internalType": "uint256",
          "name": "",
          "type": "uint256"
        }
      ],
      "stateMutability": "view",
      "type": "function"
    },
    {
      "inputs": [
        {
          "internalType": "uint256",
          "name": "tokenId",
          "type": "uint256"
        }
      ],
      "name": "getApproved",
      "outputs": [
        {
          "internalType": "address",
          "name": "",
          "type": "address"
        }
      ],
      "stateMutability": "view",
      "type": "function"
    },
    {
      "inputs": [
        {
          "internalType": "address",
          "name": "owner",
          "type": "address"
        },
        {
          "internalType": "address",
          "name": "operator",
          "type": "address"
        }
      ],
      "name": "isApprovedForAll",
      "outputs": [
        {
          "internalType": "bool",
          "name": "",
          "type": "bool"
        }
      ],
      "stateMutability": "view",
      "type": "function"
    },
    {
      "inputs": [
        {
          "internalType": "address",
          "name": "to",
          "type": "address"
        },
        {
          "internalType": "uint256",
          "name": "tokenId",
          "type": "uint256"
        }
      ],
      "name": "mint",
      "outputs": [],
      "stateMutability": "nonpayable",
      "type": "function"
    },
    {
      "inputs": [],
      "name": "name",
      "outputs": [
        {
          "internalType": "string",
          "name": "",
          "type": "string"
        }
      ],
      "stateMutability": "view",
      "type": "function"
    },
    {
      "inputs": [],
      "name": "owner",
      "outputs": [
        {
          "internalType": "address",
          "name": "",
          "type": "address"
        }
      ],
      "stateMutability": "view",
      "type": "function"
    },
    {
      "inputs": [
        {
          "internalType": "uint256",
          "name": "tokenId",
          "type": "uint256"
        }
      ],
      "name": "ownerOf",
      "outputs": [
        {
          "internalType": "address",
          "name": "",
          "type": "address"
        }
      ],
      "stateMutability": "view",
      "type": "function"
    },
    {
      "inputs": [],
      "name": "renounceOwnership",
      "outputs": [],
      "stateMutability": "nonpayable",
      "type": "function"
    },
    {
      "inputs": [
        {
          "internalType": "address",
          "name": "from",
          "type": "address"
        },
        {
          "internalType": "address",
          "name": "to",
          "type": "address"
        },
        {
          "internalType": "uint256",
          "name": "tokenId",
          "type": "uint256"
        }
      ],
      "name": "safeTransferFrom",
      "outputs": [],
      "stateMutability": "nonpayable",
      "type": "function"
    },
    {
      "inputs": [
        {
          "internalType": "address",
          "name": "from",
          "type": "address"
        },
        {
          "internalType": "address",
          "name": "to",
          "type": "address"
        },
        {
          "internalType": "uint256",
          "name": "tokenId",
          "type": "uint256"
        },
        {
          "internalType": "bytes",
          "name": "data",
          "type": "bytes"
        }
      ],
      "name": "safeTransferFrom",
      "outputs": [],
      "stateMutability": "nonpayable",
      "type": "function"
    },
    {
      "inputs": [
        {
          "internalType": "address",
          "name": "operator",
          "type": "address"
        },
        {
          "internalType": "bool",
          "name": "approved",
          "type": "bool"
        }
      ],
      "name": "setApprovalForAll",
      "outputs": [],
      "stateMutability": "nonpayable",
      "type": "function"
    },
    {
      "inputs": [
        {
          "internalType": "bytes4",
          "name": "interfaceId",
          "type": "bytes4"
        }
      ],
      "name": "supportsInterface",
      "outputs": [
        {
          "internalType": "bool",
          "name": "",
          "type": "bool"
        }
      ],
      "stateMutability": "view",
      "type": "function"
    },
    {
      "inputs": [],
      "name": "symbol",
      "outputs": [
        {
          "internalType": "string",
          "name": "",
          "type": "string"
        }
      ],
      "stateMutability": "view",
      "type": "function"
    },
    {
      "inputs": [
        {
          "internalType": "uint256",
          "name": "tokenId",
          "type": "uint256"
        }
      ],
      "name": "tokenURI",
      "outputs": [
        {
          "internalType": "string",
          "name": "",
          "type": "string"
        }
      ],
      "stateMutability": "view",
      "type": "function"
    },
    {
      "inputs": [
        {
          "internalType": "address",
          "name": "from",
          "type": "address"
        },
        {
          "internalType": "address",
          "name": "to",
          "type": "address"
        },
        {
          "internalType": "uint256",
          "name": "tokenId",
          "type": "uint256"
        }
      ],
      "name": "transferFrom",
      "outputs": [],
      "stateMutability": "nonpayable",
      "type": "function"
    },
    {
      "inputs": [
        {
          "internalType": "address",
          "name": "newOwner",
          "type": "address"
        }
      ],
      "name": "transferOwnership",
      "outputs": [],
      "stateMutability": "nonpayable",
      "type": "function"
    }
  ],
  "bytecode": "0x608060405234801562000010575f80fd5b50336040518060400160405280601081526020016f119b1bddd4185e4815195cdd0813919560821b81525060405180604001604052806005815260200164119413919560da1b815250815f9081620000699190620001aa565b506001620000788282620001aa565b5050506001600160a01b038116620000a957604051631e4fbdf760e01b81525f600482015260240160405180910390fd5b620000b481620000bb565b5062000276565b600680546001600160a01b038381166001600160a01b0319831681179093556040519116919082907f8be0079c531659141344cd1fd0a4f28419497f9722a3daafe3b4186f6b6457e0905f90a35050565b634e487b7160e01b5f52604160045260245ffd5b600181811c908216806200013557607f821691505b6020821081036200015457634e487b7160e01b5f52602260045260245ffd5b50919050565b601f821115620001a557805f5260205f20601f840160051c81016020851015620001815750805b601f840160051c820191505b81811015620001a2575f81556001016200018d565b50505b505050565b81516001600160401b03811115620001c657620001c66200010c565b620001de81620001d7845462000120565b846200015a565b602080601f83116001811462000214575f8415620001fc5750858301515b5f19600386901b1c1916600185901b1785556200026e565b5f85815260208120601f198616915b82811015620002445788860151825594840194600190910190840162000223565b50858210156200026257878501515f19600388901b60f8161c191681555b505060018460011b0185555b505050505050565b61107180620002845f395ff3fe608060405234801561000f575f80fd5b5060043610610106575f3560e01c806370a082311161009e578063a22cb4651161006e578063a22cb46514610215578063b88d4fde14610228578063c87b56dd1461023b578063e985e9c51461024e578063f2fde38b14610261575f80fd5b806370a08231146101d3578063715018a6146101f45780638da5cb5b146101fc57806395d89b411461020d575f80fd5b806323b872dd116100d957806323b872dd1461018757806340c10f191461019a57806342842e0e146101ad5780636352211e146101c0575f80fd5b806301ffc9a71461010a57806306fdde0314610132578063081812fc14610147578063095ea7b314610172575b5f80fd5b61011d610118366004610d05565b610274565b60405190151581526020015b60405180910390f35b61013a6102c5565b6040516101299190610d6d565b61015a610155366004610d7f565b610354565b6040516001600160a01b039091168152602001610129565b610185610180366004610db1565b61037b565b005b610185610195366004610dd9565b61038a565b6101856101a8366004610db1565b610418565b6101856101bb366004610dd9565b61042a565b61015a6101ce366004610d7f565b610449565b6101e66101e1366004610e12565b610453565b604051908152602001610129565b610185610498565b6006546001600160a01b031661015a565b61013a6104ab565b610185610223366004610e2b565b6104ba565b610185610236366004610e78565b6104c5565b61013a610249366004610d7f565b6104dd565b61011d61025c366004610f4d565b61054e565b61018561026f366004610e12565b61057b565b5f6001600160e01b031982166380ac58cd60e01b14806102a457506001600160e01b03198216635b5e139f60e01b145b806102bf57506301ffc9a760e01b6001600160e01b03198316145b92915050565b60605f80546102d390610f7e565b80601f01602080910402602001604051908101604052809291908181526020018280546102ff90610f7e565b801561034a5780601f106103215761010080835404028352916020019161034a565b820191905f5260205f20905b81548152906001019060200180831161032d57829003601f168201915b5050505050905090565b5f61035e826105b8565b505f828152600460205260409020546001600160a01b03166102bf565b6103868282336105f0565b5050565b6001600160a01b0382166103b857604051633250574960e11b81525f60048201526024015b60405180910390fd5b5f6103c48383336105fd565b9050836001600160a01b0316816001600160a01b031614610412576040516364283d7b60e01b81526001600160a01b03808616600483015260248201849052821660448201526064016103af565b50505050565b6104206106ef565b610386828261071c565b61044483838360405180602001604052805f8152506104c5565b505050565b5f6102bf826105b8565b5f6001600160a01b03821661047d576040516322718ad960e21b81525f60048201526024016103af565b506001600160a01b03165f9081526003602052604090205490565b6104a06106ef565b6104a95f61077d565b565b6060600180546102d390610f7e565b6103863383836107ce565b6104d084848461038a565b6104123385858585610895565b60606104e8826105b8565b505f6104fe60408051602081019091525f815290565b90505f81511161051c5760405180602001604052805f815250610547565b80610526846109bd565b604051602001610537929190610fb6565b6040516020818303038152906040525b9392505050565b6001600160a01b039182165f90815260056020908152604080832093909416825291909152205460ff1690565b6105836106ef565b6001600160a01b0381166105ac57604051631e4fbdf760e01b81525f60048201526024016103af565b6105b58161077d565b50565b5f818152600260205260408120546001600160a01b0316806102bf57604051637e27328960e01b8152600481018490526024016103af565b6104448383836001610a4d565b5f828152600260205260408120546001600160a01b039081169083161561062957610629818486610b51565b6001600160a01b03811615610663576106445f855f80610a4d565b6001600160a01b0381165f90815260036020526040902080545f190190555b6001600160a01b03851615610691576001600160a01b0385165f908152600360205260409020805460010190555b5f8481526002602052604080822080546001600160a01b0319166001600160a01b0389811691821790925591518793918516917fddf252ad1be2c89b69c2b068fc378daa952ba7f163c4a11628f55a4df523b3ef91a4949350505050565b6006546001600160a01b031633146104a95760405163118cdaa760e01b81523360048201526024016103af565b6001600160a01b03821661074557604051633250574960e11b81525f60048201526024016103af565b5f61075183835f6105fd565b90506001600160a01b03811615610444576040516339e3563760e11b81525f60048201526024016103af565b600680546001600160a01b038381166001600160a01b0319831681179093556040519116919082907f8be0079c531659141344cd1fd0a4f28419497f9722a3daafe3b4186f6b6457e0905f90a35050565b6001600160a01b0383166107f75760405163a9fbf51f60e01b81525f60048201526024016103af565b6001600160a01b03821661082957604051630b61174360e31b81526001600160a01b03831660048201526024016103af565b6001600160a01b038381165f81815260056020908152604080832094871680845294825291829020805460ff191686151590811790915591519182527f17307eab39ab6107e8899845ad3d59bd9653f200f220920489ca2b5937696c31910160405180910390a3505050565b6001600160a01b0383163b156109b657604051630a85bd0160e11b81526001600160a01b0384169063150b7a02906108d7908890889087908790600401610fe4565b6020604051808303815f875af1925050508015610911575060408051601f3d908101601f1916820190925261090e91810190611020565b60015b610978573d80801561093e576040519150601f19603f3d011682016040523d82523d5f602084013e610943565b606091505b5080515f0361097057604051633250574960e11b81526001600160a01b03851660048201526024016103af565b805160208201fd5b6001600160e01b03198116630a85bd0160e11b146109b457604051633250574960e11b81526001600160a01b03851660048201526024016103af565b505b5050505050565b60605f6109c983610bb5565b60010190505f8167ffffffffffffffff8111156109e8576109e8610e64565b6040519080825280601f01601f191660200182016040528015610a12576020820181803683370190505b5090508181016020015b5f19016f181899199a1a9b1b9c1cb0b131b232b360811b600a86061a8153600a8504945084610a1c57509392505050565b8080610a6157506001600160a01b03821615155b15610b22575f610a70846105b8565b90506001600160a01b03831615801590610a9c5750826001600160a01b0316816001600160a01b031614155b8015610aaf5750610aad818461054e565b155b15610ad85760405163a9fbf51f60e01b81526001600160a01b03841660048201526024016103af565b8115610b205783856001600160a01b0316826001600160a01b03167f8c5be1e5ebec7d5bd14f71427d1e84f3dd0314c0f7b2291e5b200ac8c7c3b92560405160405180910390a45b505b50505f90815260046020526040902080546001600160a01b0319166001600160a01b0392909216919091179055565b610b5c838383610c8c565b610444576001600160a01b038316610b8a57604051637e27328960e01b8152600481018290526024016103af565b60405163177e802f60e01b81526001600160a01b0383166004820152602481018290526044016103af565b5f8072184f03e93ff9f4daa797ed6e38ed64bf6a1f0160401b8310610bf35772184f03e93ff9f4daa797ed6e38ed64bf6a1f0160401b830492506040015b6d04ee2d6d415b85acef81000000008310610c1f576d04ee2d6d415b85acef8100000000830492506020015b662386f26fc100008310610c3d57662386f26fc10000830492506010015b6305f5e1008310610c55576305f5e100830492506008015b6127108310610c6957612710830492506004015b60648310610c7b576064830492506002015b600a83106102bf5760010192915050565b5f6001600160a01b03831615801590610ce85750826001600160a01b0316846001600160a01b03161480610cc55750610cc5848461054e565b80610ce857505f828152600460205260409020546001600160a01b038481169116145b949350505050565b6001600160e01b0319811681146105b5575f80fd5b5f60208284031215610d15575f80fd5b813561054781610cf0565b5f5b83811015610d3a578181015183820152602001610d22565b50505f910152565b5f8151808452610d59816020860160208601610d20565b601f01601f19169290920160200192915050565b602081525f6105476020830184610d42565b5f60208284031215610d8f575f80fd5b5035919050565b80356001600160a01b0381168114610dac575f80fd5b919050565b5f8060408385031215610dc2575f80fd5b610dcb83610d96565b946020939093013593505050565b5f805f60608486031215610deb575f80fd5b610df484610d96565b9250610e0260208501610d96565b9150604084013590509250925092565b5f60208284031215610e22575f80fd5b61054782610d96565b5f8060408385031215610e3c575f80fd5b610e4583610d96565b915060208301358015158114610e59575f80fd5b809150509250929050565b634e487b7160e01b5f52604160045260245ffd5b5f805f8060808587031215610e8b575f80fd5b610e9485610d96565b9350610ea260208601610d96565b925060408501359150606085013567ffffffffffffffff80821115610ec5575f80fd5b818701915087601f830112610ed8575f80fd5b813581811115610eea57610eea610e64565b604051601f8201601f19908116603f01168101908382118183101715610f1257610f12610e64565b816040528281528a6020848701011115610f2a575f80fd5b826020860160208301375f60208483010152809550505050505092959194509250565b5f8060408385031215610f5e575f80fd5b610f6783610d96565b9150610f7560208401610d96565b90509250929050565b600181811c90821680610f9257607f821691505b602082108103610fb057634e487b7160e01b5f52602260045260245ffd5b50919050565b5f8351610fc7818460208801610d20565b835190830190610fdb818360208801610d20565b01949350505050565b6001600160a01b03858116825284166020820152604081018390526080606082018190525f9061101690830184610d42565b9695505050505050565b5f60208284031215611030575f80fd5b815161054781610cf056fea26469706673582212201fa29ed104bd399607eebc6c8334425c25736b4b5a3012d7efdc6a94a7d4589864736f6c63430008180033",
  "linkReferences": {},
  "deployedLinkReferences": {}
}